:100000000C9434000C9451000C9451000C94510049
:100010000C9451000C9451000C9451000C9451001C
:100020000C9451000C9451000C9451000C94150246
:100030000C9451000C9451000C9451000C945100FC
:100040000C9451000C9451000C945B010C948301AE
:100050000C9451000C9451000C9451000C945100DC
:100060000C9451000C94510011241FBECFEFD8E026
:10007000DEBFCDBF11E0A0E0B1E0E6E5FBE002C0ED
:1000800005900D92A234B107D9F721E0A2E4B1E0C6
:1000900001C01D92A538B207E1F70E9438050C9403
:1000A000A9050C940000562FFC01319741110CC09A
:1000B000408121E030E0062E01C0220F0A94EAF7C9
:1000C00020952423208309C0408121E030E001C035
:1000D000220F6A95EAF7422B4083BC01852F0895D1
:1000E000FB01908121E030E0082E01C0220F0A942C
:1000F000EAF7442319F0922B908308952095292341
:1001000020830895FB013297908121E030E002C006
:10011000220F331F8A95E2F7892F90E02823392395
:1001200081E0232B09F480E00895FB013297908150
:1001300021E030E0082E01C0220F0A94EAF7922B4A
:1001400090830895FC01118210820895CF92EF925E
:10015000FF920F93CF93DF93EC010E9486031986E1
:10016000DF91CF910F91FF90EF90CF900895EF9294
:100170000F931F93CF93DF93EC0161110EC019868B
:10018000E12C088119812A813B814C815D816E813E
:100190007F8188850E94F6030FC0613041F5698731
:1001A000E12C088119812A813B814C815D816E811E
:1001B0007F8188850E94C203EE24E394088119811F
:1001C0002A813B814C815D816E817F8188850E947F
:1001D000F60392E0E92E088119812A813B814C8146
:1001E0005D816E817F8188850E94F60346C0623002
:1001F000D9F46987E12C088119812A813B814C81DE
:100200005D816E817F8188850E94F603EE24E394F0
:10021000088119812A813B814C815D816E817F81BA
:1002200088850E94C203D5CF633039F56987E12CF8
:10023000088119812A813B814C815D816E817F819A
:1002400088850E94F603EE24E394088119812A81AF
:100250003B814C815D816E817F8188850E94F603A0
:1002600082E0E82E088119812A813B814C815D81E1
:100270006E817F8188850E94C203DF91CF911F919B
:100280000F91EF9008950F931F93CF93DF93CDB706
:10029000DEB72A970FB6F894DEBF0FBECDBF892F09
:1002A0002A960FB6F894DEBF0FBECDBFDF91CF9177
:1002B0001F910F9108951F920F920FB60F92112464
:1002C0002F933F934F935F936F937F938F939F935E
:1002D000AF93BF93EF93FF936091C60088E591E0E1
:1002E0000E94B104FF91EF91BF91AF919F918F91C7
:1002F0007F916F915F914F913F912F910F900FBE22
:100300000F901F9018951F920F920FB60F92112405
:100310002F933F934F935F936F937F938F939F930D
:10032000AF93BF93EF93FF9382E491E00E94E304C5
:100330008093C60082E491E00E94D50482E491E0BB
:100340000E949704882329F08091C1008F7D8093BB
:10035000C100FF91EF91BF91AF919F918F917F91DC
:100360006F915F914F913F912F910F900FBE0F9022
:100370001F90189588E591E00E94900482E491E036
:100380000E9490041092C50087E68093C40088E91B
:100390008093C10086E08093C2007894089582E43F
:1003A00091E00E9497048823D1F38091C1008F7758
:1003B0008093C1008091C1008F7D8093C10008951A
:1003C000CF9388E591E00E9497048111FACF88E5E8
:1003D00091E00E94E304C82F88E591E00E94D504D3
:1003E0008C2FCF910895CF93DF931F92CDB7DEB7B7
:1003F000682F82E491E069830E949E0469818111E3
:10040000F8CF82E491E00E94B1048091C100806243
:100410008093C1000F90DF91CF91089588E591E01E
:100420000E94970491E0892708951F920F920FB6BA
:100430000F9211242F933F934F935F936F937F936A
:100440008F939F93AF93BF93EF93FF9380916F012F
:1004500090917001009709F059C080916E0182302F
:1004600099F190F4882301F1813009F054C062E0E1
:100470008BE791E00E94B70084E190E090937001D7
:1004800080936F0182E031C0833091F1843009F0B4
:1004900042C060E08BE791E00E94B70060E081E736
:1004A00091E00E94B70037C061E08BE791E00E94C5
:1004B000B70063E081E791E00E94B70081E080939C
:1004C0006E0180E590E023C063E08BE791E00E943D
:1004D000B70061E081E791E00E94B70084E690E018
:1004E0009093700180936F0183E080936E0113C03D
:1004F00062E081E791E00E94B70084E190E0909390
:10050000700180936F0110926E0105C00197909366
:10051000700180936F01FF91EF91BF91AF919F9117
:100520008F917F916F915F914F913F912F910F909C
:100530000FBE0F901F901895CF92EF92FF920F93DE
:1005400087E0C82E9BE2E92EF12C06E02BE230E09A
:1005500045E06BE270E08BE791E00E94A60022E0AC
:10056000C22E38E2E32EF12C03E028E230E044E032
:100570006BE270E081E791E00E94A600109280009B
:10058000E1E8F0E080818860808380818D7F8083D6
:1005900080818E7F808388EA91E6909389008093A2
:1005A00088001092850010928400EFE6F0E08081D0
:1005B0008260808384E080936E010F91FF90EF90C2
:1005C000CF90089560E08BE791E00E94B70060E073
:1005D00081E791E00E94B70084E080936E01E1E83A
:1005E000F0E080818860808380818D7F808380813E
:1005F0008E7F8083089561E08BE791E00E94B700D1
:1006000063E081E791E00E94B70010926E01E1E89B
:10061000F0E0808188608083808182608083808137
:100620008160808308950F931F93811115C00091FD
:100630007B0110917C0120917D0130917E014091E0
:100640007F015091800160918101709182018091C0
:1006500083019091840114C0009171011091720185
:100660002091730130917401409175015091760190
:1006700060917701709178018091790190917A0170
:100680000E9443011F910F9108950F931F93CF93E1
:10069000DF93D82F00917B0110917C0120917D0187
:1006A00030917E0140917F015091800160918101E4
:1006B0007091820180918301909184010E94430195
:1006C000C82F81E00E941303D1110AC0C150C2306B
:1006D00018F410926E0111C0813099F483E006C0C5
:1006E000D13079F48150823020F482E080936E0121
:1006F00004C0C13031F4C0936E01109270011092A9
:100700006F01DF91CF911F910F910895AF92BF922A
:10071000CF92EF92FF920F93CF93DF93EC01CB0137
:10072000642F590141E00E945300688379838A83D2
:1007300041E0602FC5010E9453006B837C838D8351
:1007400041E06C2DC7010E9453006E837F83888730
:10075000688179818A8140E00E9470006B817C8190
:100760008D8140E00E9470006E817F81888540E02D
:10077000DF91CF910F91FF90EF90CF90BF90AF900E
:100780000C947000EF920F931F93CF93DF93CDB72C
:10079000DEB729970FB6F894DEBF0FBECDBF098331
:1007A0001A832B833C834D835E836F83788789878D
:1007B000E11004C069817A818B810AC081E0E8126E
:1007C00004C06C817D818E8103C06F8178858985AD
:1007D00041E029960FB6F894DEBF0FBECDBFDF9182
:1007E000CF911F910F91EF900C947000EF920F93A7
:1007F0001F93CF93DF93CDB7DEB729970FB6F89449
:10080000DEBF0FBECDBF09831A832B833C834D838C
:100810005E836F8378878987E11004C069817A815C
:100820008B810AC081E0E81204C06C817D818E81D9
:1008300003C06F817885898540E029960FB6F894CA
:10084000DEBF0FBECDBFDF91CF911F910F91EF9013
:100850000C947000EF920F931F93CF93DF93CDB75B
:10086000DEB729970FB6F894DEBF0FBECDBF098360
:100870001A832B833C834D835E836F8378878987BC
:10088000E11004C069817A818B810AC081E0E8129D
:1008900004C06C817D818E8103C06F8178858985DC
:1008A00029960FB6F894DEBF0FBECDBFDF91CF9172
:1008B0001F910F91EF900C949500EF920F931F935F
:1008C000CF93DF93CDB7DEB729970FB6F894DEBF8D
:1008D0000FBECDBF09831A832B833C834D835E8378
:1008E0006F8378878987E11004C069817A818B8161
:1008F0000AC081E0E81204C06C817D818E8103C052
:100900006F817885898529960FB6F894DEBF0FBE72
:10091000CDBFDF91CF911F910F91EF900C9482008A
:100920002FB7F894FC01148A158A2FBF0895FC0193
:1009300081E025899489291380E00895FC012589A7
:100940004489233111F4442351F030E02F5F3F4FAD
:1009500050E081E02417350719F080E0089581E028
:100960000895EF92FF921F93CF93DF931F92CDB71D
:10097000DEB77C011FB7F89469830E949E046981E9
:1009800081110BC0F7018589E80FF11D60838F5F2E
:10099000F701858B843109F4158A1FBF0F90DF9111
:1009A000CF911F91FF90EF900895FC019FB7F894AD
:1009B00084892589281729F08F5F848B843109F475
:1009C000148A9FBF08953FB7F894FC012489458994
:1009D000421721F0E20FF11D808101C08FEF3FBF70
:1009E00008951F93CF93DF93EC0110E0FE01E10F18
:1009F000F11D8081882321F00E94F3011F5FF6CF53
:100A0000DF91CF911F910895BF92CF92DF92EF9225
:100A1000FF920F931F93CF93DF937C01C62E0E940A
:100A2000E001B82E8701C0E0D0E0D12C8B2D9927B2
:100A300087FD90950E949E05892B59F0CC15DD0508
:100A400044F4F801B1928F010E94E001B82E219682
:100A5000EDCFF701EC0FFD1F1082CE01DF91CF919A
:100A60001F910F91FF90EF90DF90CF90BF9008956E
:100A7000CF93DF93CDB7DEB764970FB6F894DEBFA0
:100A80000FBECDBF0E949C020E94BA0180E091E09F
:100A90000E94F10411E0612FCE0101960E9404052D
:100AA00089818634B1F480E00E941303882389F1A0
:100AB0008A81813421F480E00E9445033CC0823465
:100AC00051F781E00E9445038DE391E00E94F1041B
:100AD000E2CF8F3309F58A81813411F480E003C0BD
:100AE0008234B9F481E00E941303811103C089E1CB
:100AF00091E0ECCF813019F480E291E0E7CF8230D1
:100B000019F489E291E0E2CF833029F685E391E0A0
:100B1000DDCF8FE091E0DACF823541F40E94FB0215
:100B200089E091E00E94F10412E0B5CF883409F029
:100B3000B2CF0E94E20289E091E0C8CF803209F092
:100B4000911104C080528F55E0F7089599278827A6
:060B50000895F894FFCFA8
:100B560053544152540D0A00004F4B0D0A000043F6
:100B66004F4D4552520D0A00004F46460D0A0000F1
:100B7600434C4541520D0A0000415050524F4143EB
:100B8600480D0A000053544F500D0A00004F4B0DFC
:020B96000A0053
:00000001FF
